:100000000C947B000C94AC000C94AC000C94AC00F1
:100010000C94AC000C94AC000C94AC000C94AC00B0
:100020000C94AC000C94AC000C94AC000C94AC00A0
:100030000C94AC000C94AC000C94AC000C94AC0090
:100040000C94AC000C94AC000C94AC000C94AC0080
:100050000C94AC000C94AC000C94AC000C94AC0070
:100060000C94AC000C94AC000C94AC000C94AC0060
:100070000C94AC000C94AC000C94AC000C94AC0050
:100080000C94AC000C94AC000C94AC000C94AC0040
:100090000C94AC000C94AC000C94AC000C94AC0030
:1000A0000C94AC000C94AC000C94AC000C94AC0020
:1000B0000C94AC000C94AC000C94AC000C94AC0010
:1000C0000C94AC000C94AC000C94AC000C94AC0000
:1000D0000C94AC000C94AC000C94AC000C94AC00F0
:1000E0000C94AC000C94DB010C94A3010C94AE00B6
:1000F0000C941A031A0311241FBECFEFD1E2DEBF06
:10010000CDBF00E00CBF12E0A0E0B2E0ECEBF8E005
:1001100000E00BBF02C007900D92AA31B107D9F7DA
:1001200022E0AAE1B2E001C01D92A434B207E1F7D7
:1001300010E0C6EFD0E000E006C022970109FE0102
:100140000BBF0E943103C43FD10780E00807A9F725
:100150000E94D7020C945C040C94000010920002E0
:1001600008951092C50080E18093C400E0ECF0E0B7
:1001700080818260808386E08093C20088E18093E2
:10018000C10008958093C600E0ECF0E0808186FF16
:10019000FDCF0895CF93DF93662381F0282FA82FFA
:1001A000B92FC6ECD0E0E0ECF0E08D91888380813F
:1001B00086FFFDCF8A2F821B8617B8F3DF91CF9180
:1001C0000895CF93DF93662381F0282FA82FB92FAE
:1001D000E0ECF0E0C6ECD0E090819923ECF7988158
:1001E0009D939A2F921B9617B8F3862FDF91CF918C
:1001F000089583EA91E090933302809332028BED6D
:1002000091E090933502809334028EEA90E09093CF
:1002100037028093360282E090E09093310280931F
:10022000300288E084B982E083BB81E880930A01D0
:10023000EBE0F1E0808110828081108284E48CBD4B
:100240000E94B10008958091C0008823ACF4809191
:10025000C60080931C0290E0209130023091310260
:10026000281739074CF0FC01EE0FFF1FEE5CFD4F25
:100270000190F081E02D1995089562E00E94E1005F
:1002800008956DE00E94E1000895FC01808190E0F6
:10029000982F88272181822B0895FC01808190E08E
:1002A000982F88272181822B08958FEF80931A023F
:1002B00080931B020895442349F040911A0250E0B4
:1002C000542F442720911B02422B02C04FEF5FEFB7
:1002D00016161706D4F4FC01860F971F78E060E02D
:1002E00021915227272F362F55233CF4440F551FB9
:1002F000A1E24A27A0E15A2702C0440F551F21500E
:10030000310991F7E817F90759F750931A0240930A
:100310001B020895CF93DF93EC0141E061E070E0B0
:100320000E945B0180911A02898380911B028A835B
:1003300063E0CE010E94CA00DF91CF91089540E0B2
:100340000E945B01089561E070E08CE192E00E9400
:100350009F0180E480931C028CE192E00E948A015C
:1003600008950F931F93CF93DF938C01EB01CB0183
:10037000845E9D4F0E943D018823A9F0BE018CE15F
:1003800092E00E949F01F801EC0FFD1F9081809187
:100390001A0298130AC081E0218190911B0229174B
:1003A00029F080E003C080E001C080E0DF91CF91C0
:1003B0001F910F9108950F931F93CF93DF9381E0C7
:1003C0000E94C2008DE192E00E944101882309F45D
:1003D0009BC06EE070E08CE192E00E94B101882346
:1003E00009F492C00E9455011091220220913A0214
:1003F00030913B0240913C0250913D02C901841B67
:10040000950B8F3F4FEF940709F478C04091380265
:1004100050913902415051098417950709F46EC073
:10042000CCE1D2E089819A81AB81BC810DE0029F51
:10043000A001039F500D1124E0913E02F0913F0274
:10044000E40FF51F80839183A283B3832AE332E014
:10045000F90140815181049FB001059F700D112465
:100460008A819B81AC81BD81E0913E02F0913F0287
:10047000E60FF71F84839583A683B783E0913E023E
:10048000F0913F02E60FF71F8B819C81AD81BE8109
:1004900080879187A287B387812F90E0BC017595F3
:1004A0006795A48560FBA0F9BC0175956795759566
:1004B00067957A2F60FB71F9959587959595879546
:1004C00095958795972F80FB92F99487CA0101969D
:1004D000F90191838083209138023091390282178B
:1004E000930720F010923B0210923A0281E0809331
:1004F0001C028CE192E00E948A0106C010921C024C
:100500008CE192E00E948A01DF91CF911F910F91BF
:1005100008950E94B101882329F081E00E94C20061
:1005200081E0089580E00895EBE0F1E0208120680B
:1005300020830DB407FEFDCF209101022EBD0DB426
:1005400007FEFDCF2EB5E82FF92F80E091919EBDDB
:100550000DB407FEFDCF9EB58F5F8D30B9F780914A
:100560000F028EBD0DB407FEFDCF8EB58091100237
:100570008EBD0DB407FEFDCF8EB5809111028EBDEC
:100580000DB407FEFDCF8EB5809112028EBD0DB465
:1005900007FEFDCF8EB5809113028EBD0DB407FE10
:1005A000FDCF8EB5EBE0F1E08081108208950E94CE
:1005B000F900A19ACCE3D2E00AE312E00F2EFEE3A9
:1005C000CF2EF2E0DF2EF02D0F2EFDE0BF2EF02D0E
:1005D0000F2EF8E3EF2EF2E0FF2EF02D8EB58A35C8
:1005E000E9F71EBC28813981F80180819181821749
:1005F000930729F482E092E00E94940218C0B29E10
:10060000C001B39E900D1124F60140815181840FE9
:10061000951F2F5F3F4F39832883F7014081518118
:100620002417350710F0198218820E9494020E9444
:100630002301D4CF88E29AE00E94350390933F02D1
:1006400080933E0210923B0210923A0210923D02B9
:1006500010923C0288EC90E090933902809338022B
:1006600008950790F691E02D1994CF93DF9382308F
:10067000910510F482E090E0E0914202F091430293
:1006800020E030E0A0E0B0E0309739F140815181C6
:1006900048175907B8F04817590771F482819381B8
:1006A000109729F013969C938E9312972CC09093D9
:1006B00043028093420227C02115310531F04217D1
:1006C000530718F0A901DB0101C0EF019A01BD0138
:1006D000DF010280F381E02DD7CF21153105F9F03C
:1006E000281B390B2430310580F48A819B816115E8
:1006F000710521F0FB019383828304C09093430230
:1007000080934202FE01329644C0FE01E20FF31FC5
:100710008193919322503109398328833AC02091E3
:10072000400230914102232B41F420911602309176
:10073000170230934102209340022091140230911D
:1007400015022115310541F42DB73EB7409118022D
:1007500050911902241B350BE0914002F0914102A7
:10076000E217F307A0F42E1B3F0B2817390778F088
:10077000AC014E5F5F4F2417350748F04E0F5F1FE7
:1007800050934102409340028193919302C0E0E074
:10079000F0E0CF01DF91CF910895CF93DF930097E1
:1007A00009F487C0FC01329713821282C091420281
:1007B000D0914302209781F420813181280F391F85
:1007C00080914002909141028217930779F5F0934E
:1007D0004102E09340026DC0DE0120E030E0AE1740
:1007E000BF0750F412964D915C9113979D014115EE
:1007F000510509F1DA01F3CFB383A283408151811E
:10080000840F951F8A179B0771F48D919C91119706
:10081000840F951F02969183808312968D919C91EF
:100820001397938382832115310529F4F0934302B2
:10083000E09342023EC0D9011396FC93EE931297C7
:100840004D915D91A40FB51FEA17FB0779F48081E4
:100850009181840F951F0296D90111969C938E93D6
:100860008281938113969C938E931297E0E0F0E03F
:100870008A819B81009719F0FE01EC01F9CFCE012E
:10088000029628813981820F931F20914002309176
:1008900041022817390769F4309729F4109243026E
:1008A0001092420202C013821282D0934102C0937E
:0C08B0004002DF91CF910895F894FFCF33
:1008BC0001A50242F0000242F0000242F000E02FDB
:0A08CC00802F805A000044028000D3
:00000001FF
